{
  "transactions": [
    {
      "hash": "0x079a91bacbd607c3c3dc24244fc642ba430cef62499a19bc131b84f426a879ae",
      "transactionType": "CALL",
      "contractName": null,
      "contractAddress": "0x33be589e446709e411684cb3b25e5ca2ebedcfc0",
      "function": "approve(address,uint256)",
      "arguments": [
        "0xCC6590648FAf66c56a2fF653ce528AC355Bb4ad0",
        "10000000000000000"
      ],
      "transaction": {
        "from": "0xca84f23fa21d669ee092bb31113c855a0f67117b",
        "to": "0x33be589e446709e411684cb3b25e5ca2ebedcfc0",
        "gas": "0xf9bf",
        "value": "0x0",
        "input": "0x095ea7b3000000000000000000000000cc6590648faf66c56a2ff653ce528ac355bb4ad0000000000000000000000000000000000000000000000000002386f26fc10000",
        "nonce": "0x24",
        "chainId": "0x2dc"
      },
      "additionalContracts": [],
      "isFixedGasLimit": false
    }
  ],
  "receipts": [
    {
      "status": "0x1",
      "cumulativeGasUsed": "0xb4d0",
      "logs": [
        {
          "address": "0x33be589e446709e411684cb3b25e5ca2ebedcfc0",
          "topics": [
            "0x8c5be1e5ebec7d5bd14f71427d1e84f3dd0314c0f7b2291e5b200ac8c7c3b925",
            "0x000000000000000000000000ca84f23fa21d669ee092bb31113c855a0f67117b",
            "0x000000000000000000000000cc6590648faf66c56a2ff653ce528ac355bb4ad0"
          ],
          "data": "0x000000000000000000000000000000000000000000000000002386f26fc10000",
          "blockHash": "0x733602fe08953e8aa3bf458680b8568c1c5655f728ae68913a6dbf491409a765",
          "blockNumber": "0x2a",
          "transactionHash": "0x079a91bacbd607c3c3dc24244fc642ba430cef62499a19bc131b84f426a879ae",
          "transactionIndex": "0x0",
          "logIndex": "0x0",
          "removed": false
        }
      ],
      "logsBloom": "0x00000000000000000000000000000000000004000000000002000000000000000000000000000000000000000000000000000000000100000000000020200400000000000000000000000000000000000000000000000000000000000000000000000000000000000000000000000000000400040000000000000000000000000000000000000000000000000000000000000000000000000000000000000000020000200000000000000000000000000000000000000000000000000000000000000000000000000000000000000000000000000000000000000000000000000010000000000000000000000000000000000000000000000100000000000000",
      "type": "0x2",
      "transactionHash": "0x079a91bacbd607c3c3dc24244fc642ba430cef62499a19bc131b84f426a879ae",
      "transactionIndex": "0x0",
      "blockHash": "0x733602fe08953e8aa3bf458680b8568c1c5655f728ae68913a6dbf491409a765",
      "blockNumber": "0x2a",
      "gasUsed": "0xb4d0",
      "effectiveGasPrice": "0x246139ca800",
      "from": "0xca84f23fa21d669ee092bb31113c855a0f67117b",
      "to": "0x33be589e446709e411684cb3b25e5ca2ebedcfc0",
      "contractAddress": null
    }
  ],
  "libraries": [],
  "pending": [],
  "returns": {},
  "timestamp": 1720624560,
  "chain": 732,
  "commit": "59f90b2"
}